:020000040800F2
:1000000000800020DD080008210900081F09000801
:100010002109000821090008210900082109000818
:100020002109000821090008210900082109000808
:1000300021090008210900082109000821090008F8
:1000400021090008210900082109000821090008E8
:1007C00080B400AF00BFFDE790B585B000AF00F08A
:1007D00037F80D4B0D4A9A600C4B1B68FB600C4BB5
:1007E0001B68BB60FB687B607B6883F3888800BF05
:1007F000BB681C4664086400204621462246234606
:1008000000F098F800BFFDE700ED02E000000208EC
:100810000400020880B400AF084B03F540531A46A9
:100820000423136700BFBD4680BC70467146724604
:100830007346F4468EF3008C744700BF00C003502B
:1008400080B400AF0A4B03F580531A464FF0806323
:100850005366084B5B6E23F47F6323F00F03054A56
:1008600043F48063536600BFBD4680BC704700BF41
:100870000080005000C0035080B400AF104B002235
:100880009A600F4B0F4ADA600D4B0F4A1A610C4BFE
:1008900001229A600A4B0D4ADA60094B0C4A1A6130
:1008A000074B02229A60064B0A4ADA60044B0A4A56
:1008B0001A61034B01221A6000BFBD4680BC70471D
:1008C000D0ED00E000F80108E3FF01080000020895
:1008D000E1FF070800800020E1FF0020FFF7CCFFC8
:1008E000104C114DAC420ADA21686268A3689B0083
:1008F000043BA2BFC858D050FAE70C34F2E70B4BC8
:100900000B4CA34209DA19685A6892000020043A95
:10091000A4BF8850FBE70833F3E7FFF755FFFEE776
:10092000FEE700007C090008880900088809000823
:10093000880900082DE9E04F2746A046A146A246B7
:10094000A346A446A2B02DEC000A84F300882546F5
:100950002646A447EFF3148515F0080F18BFB0EE34
:0C096000400A3DEC000A22B0BDE8E08F28
:10096C0070FFFF7FB0B0B080C0FFFF7F01000000C0
:0C097C00880900080000002000000000B6
:020000040801F1
:10F800007FE97FE9E1F706B8000000000000000092
:10F8100000000000000000000000000000000000E8
:04000005080008DD0A
:00000001FF
